{
  "_format": "hh-sol-artifact-1",
  "contractName": "InsureChain",
  "sourceName": "contracts/InsureChain.sol",
  "abi": [
    {
      "inputs": [
        {
          "internalType": "uint256",
          "name": "_fraudScoreThreshold",
          "type": "uint256"
        }
      ],
      "stateMutability": "nonpayable",
      "type": "constructor"
    },
    {
      "anonymous": false,
      "inputs": [
        {
          "indexed": true,
          "internalType": "uint256",
          "name": "claimId",
          "type": "uint256"
        },
        {
          "indexed": false,
          "internalType": "enum InsureChain.ClaimStatus",
          "name": "status",
          "type": "uint8"
        }
      ],
      "name": "ClaimStatusUpdated",
      "type": "event"
    },
    {
      "anonymous": false,
      "inputs": [
        {
          "indexed": true,
          "internalType": "uint256",
          "name": "claimId",
          "type": "uint256"
        },
        {
          "indexed": true,
          "internalType": "address",
          "name": "policyholder",
          "type": "address"
        },
        {
          "indexed": false,
          "internalType": "uint256",
          "name": "requestedAmount",
          "type": "uint256"
        }
      ],
      "name": "ClaimSubmitted",
      "type": "event"
    },
    {
      "anonymous": false,
      "inputs": [
        {
          "indexed": true,
          "internalType": "uint256",
          "name": "claimId",
          "type": "uint256"
        },
        {
          "indexed": false,
          "internalType": "uint256",
          "name": "fraudScore",
          "type": "uint256"
        },
        {
          "indexed": false,
          "internalType": "uint256",
          "name": "approvedAmount",
          "type": "uint256"
        }
      ],
      "name": "ClaimVerified",
      "type": "event"
    },
    {
      "anonymous": false,
      "inputs": [
        {
          "indexed": false,
          "internalType": "uint256",
          "name": "newThreshold",
          "type": "uint256"
        }
      ],
      "name": "FraudScoreThresholdUpdated",
      "type": "event"
    },
    {
      "anonymous": false,
      "inputs": [
        {
          "indexed": true,
          "internalType": "uint256",
          "name": "claimId",
          "type": "uint256"
        },
        {
          "indexed": true,
          "internalType": "address",
          "name": "policyholder",
          "type": "address"
        },
        {
          "indexed": false,
          "internalType": "uint256",
          "name": "amount",
          "type": "uint256"
        }
      ],
      "name": "PayoutExecuted",
      "type": "event"
    },
    {
      "inputs": [
        {
          "internalType": "uint256",
          "name": "_claimId",
          "type": "uint256"
        },
        {
          "internalType": "bool",
          "name": "_approved",
          "type": "bool"
        },
        {
          "internalType": "uint256",
          "name": "_approvedAmount",
          "type": "uint256"
        }
      ],
      "name": "adminOverrideClaim",
      "outputs": [],
      "stateMutability": "nonpayable",
      "type": "function"
    },
    {
      "inputs": [
        {
          "internalType": "uint256",
          "name": "",
          "type": "uint256"
        }
      ],
      "name": "claims",
      "outputs": [
        {
          "internalType": "uint256",
          "name": "claimId",
          "type": "uint256"
        },
        {
          "internalType": "address",
          "name": "policyholder",
          "type": "address"
        },
        {
          "internalType": "uint256",
          "name": "requestedAmount",
          "type": "uint256"
        },
        {
          "internalType": "uint256",
          "name": "approvedAmount",
          "type": "uint256"
        },
        {
          "internalType": "uint256",
          "name": "fraudScore",
          "type": "uint256"
        },
        {
          "internalType": "enum InsureChain.ClaimStatus",
          "name": "status",
          "type": "uint8"
        },
        {
          "internalType": "uint256",
          "name": "timestamp",
          "type": "uint256"
        },
        {
          "internalType": "string",
          "name": "ipfsDocumentHash",
          "type": "string"
        },
        {
          "internalType": "address",
          "name": "verifier",
          "type": "address"
        }
      ],
      "stateMutability": "view",
      "type": "function"
    },
    {
      "inputs": [
        {
          "internalType": "uint256",
          "name": "_claimId",
          "type": "uint256"
        }
      ],
      "name": "executePayout",
      "outputs": [],
      "stateMutability": "payable",
      "type": "function"
    },
    {
      "inputs": [],
      "name": "fraudScoreThreshold",
      "outputs": [
        {
          "internalType": "uint256",
          "name": "",
          "type": "uint256"
        }
      ],
      "stateMutability": "view",
      "type": "function"
    },
    {
      "inputs": [],
      "name": "fundContract",
      "outputs": [],
      "stateMutability": "payable",
      "type": "function"
    },
    {
      "inputs": [
        {
          "internalType": "uint256",
          "name": "_claimId",
          "type": "uint256"
        }
      ],
      "name": "getClaimDetails",
      "outputs": [
        {
          "internalType": "address",
          "name": "policyholder",
          "type": "address"
        },
        {
          "internalType": "uint256",
          "name": "requestedAmount",
          "type": "uint256"
        },
        {
          "internalType": "uint256",
          "name": "approvedAmount",
          "type": "uint256"
        },
        {
          "internalType": "uint256",
          "name": "fraudScore",
          "type": "uint256"
        },
        {
          "internalType": "enum InsureChain.ClaimStatus",
          "name": "status",
          "type": "uint8"
        },
        {
          "internalType": "uint256",
          "name": "timestamp",
          "type": "uint256"
        },
        {
          "internalType": "string",
          "name": "ipfsDocumentHash",
          "type": "string"
        },
        {
          "internalType": "address",
          "name": "verifier",
          "type": "address"
        }
      ],
      "stateMutability": "view",
      "type": "function"
    },
    {
      "inputs": [],
      "name": "getContractBalance",
      "outputs": [
        {
          "internalType": "uint256",
          "name": "",
          "type": "uint256"
        }
      ],
      "stateMutability": "view",
      "type": "function"
    },
    {
      "inputs": [
        {
          "internalType": "address",
          "name": "_policyholder",
          "type": "address"
        }
      ],
      "name": "getPolicyholderClaimIds",
      "outputs": [
        {
          "internalType": "uint256[]",
          "name": "",
          "type": "uint256[]"
        }
      ],
      "stateMutability": "view",
      "type": "function"
    },
    {
      "inputs": [],
      "name": "owner",
      "outputs": [
        {
          "internalType": "address",
          "name": "",
          "type": "address"
        }
      ],
      "stateMutability": "view",
      "type": "function"
    },
    {
      "inputs": [
        {
          "internalType": "address",
          "name": "",
          "type": "address"
        },
        {
          "internalType": "uint256",
          "name": "",
          "type": "uint256"
        }
      ],
      "name": "policyholderClaims",
      "outputs": [
        {
          "internalType": "uint256",
          "name": "",
          "type": "uint256"
        }
      ],
      "stateMutability": "view",
      "type": "function"
    },
    {
      "inputs": [
        {
          "internalType": "uint256",
          "name": "_requestedAmount",
          "type": "uint256"
        },
        {
          "internalType": "string",
          "name": "_ipfsDocumentHash",
          "type": "string"
        }
      ],
      "name": "submitClaim",
      "outputs": [],
      "stateMutability": "nonpayable",
      "type": "function"
    },
    {
      "inputs": [],
      "name": "totalClaims",
      "outputs": [
        {
          "internalType": "uint256",
          "name": "",
          "type": "uint256"
        }
      ],
      "stateMutability": "view",
      "type": "function"
    },
    {
      "inputs": [
        {
          "internalType": "address",
          "name": "_newOwner",
          "type": "address"
        }
      ],
      "name": "transferOwnership",
      "outputs": [],
      "stateMutability": "nonpayable",
      "type": "function"
    },
    {
      "inputs": [
        {
          "internalType": "uint256",
          "name": "_newThreshold",
          "type": "uint256"
        }
      ],
      "name": "updateFraudScoreThreshold",
      "outputs": [],
      "stateMutability": "nonpayable",
      "type": "function"
    },
    {
      "inputs": [
        {
          "internalType": "uint256",
          "name": "_claimId",
          "type": "uint256"
        },
        {
          "internalType": "uint256",
          "name": "_fraudScore",
          "type": "uint256"
        },
        {
          "internalType": "uint256",
          "name": "_predictedAmount",
          "type": "uint256"
        }
      ],
      "name": "verifyClaim",
      "outputs": [],
      "stateMutability": "nonpayable",
      "type": "function"
    },
    {
      "inputs": [
        {
          "internalType": "uint256",
          "name": "_amount",
          "type": "uint256"
        }
      ],
      "name": "withdrawFunds",
      "outputs": [],
      "stateMutability": "nonpayable",
      "type": "function"
    }
  ],
  "bytecode": "0x60806040523480156200001157600080fd5b506040516200252e3803806200252e83398181016040528101906200003791906200010c565b60648111156200007e576040517f08c379a00000000000000000000000000000000000000000000000000000000081526004016200007590620001c5565b60405180910390fd5b336000806101000a81548173ffffffffffffffffffffffffffffffffffffffff021916908373ffffffffffffffffffffffffffffffffffffffff1602179055508060018190555050620001e7565b600080fd5b6000819050919050565b620000e681620000d1565b8114620000f257600080fd5b50565b6000815190506200010681620000db565b92915050565b600060208284031215620001255762000124620000cc565b5b60006200013584828501620000f5565b91505092915050565b600082825260208201905092915050565b7f5468726573686f6c64206d757374206265206265747765656e203020616e642060008201527f3130300000000000000000000000000000000000000000000000000000000000602082015250565b6000620001ad6023836200013e565b9150620001ba826200014f565b604082019050919050565b60006020820190508181036000830152620001e0816200019e565b9050919050565b61233780620001f76000396000f3fe6080604052600436106100f35760003560e01c80637c9acd0c1161008a578063bd097e2111610059578063bd097e211461032a578063f2c5766f14610334578063f2fde38b1461035d578063ffe864b414610386576100f3565b80637c9acd0c1461024d5780638da5cb5b14610276578063a888c2cd146102a1578063bac71e00146102e6576100f3565b806341c61383116100c657806341c613831461019157806345b46525146101bc5780636525a3ea146101e55780636f9fb98a14610222576100f3565b8063155dd5ee146100f857806319e7db041461012157806321814f901461014a57806332c2f91814610166575b600080fd5b34801561010457600080fd5b5061011f600480360381019061011a91906114db565b6103c3565b005b34801561012d57600080fd5b5061014860048036038101906101439190611508565b6104fe565b005b610164600480360381019061015f91906114db565b61072b565b005b34801561017257600080fd5b5061017b610a33565b604051610188919061156a565b60405180910390f35b34801561019d57600080fd5b506101a6610a39565b6040516101b3919061156a565b60405180910390f35b3480156101c857600080fd5b506101e360048036038101906101de91906116cb565b610a3f565b005b3480156101f157600080fd5b5061020c60048036038101906102079190611785565b610cfa565b604051610219919061156a565b60405180910390f35b34801561022e57600080fd5b50610237610d2b565b604051610244919061156a565b60405180910390f35b34801561025957600080fd5b50610274600480360381019061026f91906114db565b610d33565b005b34801561028257600080fd5b5061028b610e46565b60405161029891906117d4565b60405180910390f35b3480156102ad57600080fd5b506102c860048036038101906102c391906114db565b610e6a565b6040516102dd999897969594939291906118e5565b60405180910390f35b3480156102f257600080fd5b5061030d600480360381019061030891906114db565b610f8d565b604051610321989796959493929190611979565b60405180910390f35b610332611111565b005b34801561034057600080fd5b5061035b60048036038101906103569190611a36565b611113565b005b34801561036957600080fd5b50610384600480360381019061037f9190611a89565b6112ba565b005b34801561039257600080fd5b506103ad60048036038101906103a89190611a89565b6113fa565b6040516103ba9190611b74565b60405180910390f35b60008054906101000a900473ffffffffffffffffffffffffffffffffffffffff1673ffffffffffffffffffffffffffffffffffffffff163373ffffffffffffffffffffffffffffffffffffffff1614610451576040517f08c379a000000000000000000000000000000000000000000000000000000000815260040161044890611c08565b60405180910390fd5b47811115610494576040517f08c379a000000000000000000000000000000000000000000000000000000000815260040161048b90611c74565b60405180910390fd5b60008054906101000a900473ffffffffffffffffffffffffffffffffffffffff1673ffffffffffffffffffffffffffffffffffffffff166108fc829081150290604051600060405180830381858888f193505050501580156104fa573d6000803e3d6000fd5b5050565b6004548310610542576040517f08c379a000000000000000000000000000000000000000000000000000000000815260040161053990611ce0565b60405180910390fd5b60006003811115610556576105556117ef565b5b6002600085815260200190815260200160002060050160009054906101000a900460ff16600381111561058c5761058b6117ef565b5b146105cc576040517f08c379a00000000000000000000000000000000000000000000000000000000081526004016105c390611d4c565b60405180910390fd5b6000600260008581526020019081526020016000209050828160040181905550818160030181905550338160080160006101000a81548173ffffffffffffffffffffffffffffffffffffffff021916908373ffffffffffffffffffffffffffffffffffffffff1602179055506001548310156106745760018160050160006101000a81548160ff0219169083600381111561066a576106696117ef565b5b02179055506106a2565b60028160050160006101000a81548160ff0219169083600381111561069c5761069b6117ef565b5b02179055505b837f299510e13632aa8f1a24bc2edba5ed516953feb858724e39804043a0b17de6f284846040516106d4929190611d6c565b60405180910390a2837f2e7de2377c1e6f85a268dbe00519c60d65c9e38570a118be0eb07feb07fc89be8260050160009054906101000a900460ff1660405161071d9190611d95565b60405180910390a250505050565b60008054906101000a900473ffffffffffffffffffffffffffffffffffffffff1673ffffffffffffffffffffffffffffffffffffffff163373ffffffffffffffffffffffffffffffffffffffff16146107b9576040517f08c379a00000000000000000000000000000000000000000000000000000000081526004016107b090611c08565b60405180910390fd5b60045481106107fd576040517f08c379a00000000000000000000000000000000000000000000000000000000081526004016107f490611ce0565b60405180910390fd5b600060026000838152602001908152602001600020905060016003811115610828576108276117ef565b5b8160050160009054906101000a900460ff16600381111561084c5761084b6117ef565b5b1461088c576040517f08c379a000000000000000000000000000000000000000000000000000000000815260040161088390611dfc565b60405180910390fd5b80600301544710156108d3576040517f08c379a00000000000000000000000000000000000000000000000000000000081526004016108ca90611c74565b60405180910390fd5b60038160050160006101000a81548160ff021916908360038111156108fb576108fa6117ef565b5b02179055508060010160009054906101000a900473ffffffffffffffffffffffffffffffffffffffff1673ffffffffffffffffffffffffffffffffffffffff166108fc82600301549081150290604051600060405180830381858888f1935050505015801561096e573d6000803e3d6000fd5b508060010160009054906101000a900473ffffffffffffffffffffffffffffffffffffffff1673ffffffffffffffffffffffffffffffffffffffff16827fbeaa99d72a600712e4656a7da04b2cabe31fb50fbf8f5b5f96513b0a4f495c1a83600301546040516109de919061156a565b60405180910390a3817f2e7de2377c1e6f85a268dbe00519c60d65c9e38570a118be0eb07feb07fc89be8260050160009054906101000a900460ff16604051610a279190611d95565b60405180910390a25050565b60015481565b60045481565b60008211610a82576040517f08c379a0000000000000000000000000000000000000000000000000000000008152600401610a7990611e8e565b60405180910390fd5b600060045490506040518061012001604052808281526020013373ffffffffffffffffffffffffffffffffffffffff168152602001848152602001600081526020016000815260200160006003811115610adf57610ade6117ef565b5b8152602001428152602001838152602001600073ffffffffffffffffffffffffffffffffffffffff16815250600260008381526020019081526020016000206000820151816000015560208201518160010160006101000a81548173ffffffffffffffffffffffffffffffffffffffff021916908373ffffffffffffffffffffffffffffffffffffffff16021790555060408201518160020155606082015181600301556080820151816004015560a08201518160050160006101000a81548160ff02191690836003811115610bb857610bb76117ef565b5b021790555060c0820151816006015560e0820151816007019081610bdc91906120ba565b506101008201518160080160006101000a81548173ffffffffffffffffffffffffffffffffffffffff021916908373ffffffffffffffffffffffffffffffffffffffff160217905550905050600360003373ffffffffffffffffffffffffffffffffffffffff1673ffffffffffffffffffffffffffffffffffffffff16815260200190815260200160002081908060018154018082558091505060019003906000526020600020016000909190919091505560046000815480929190610ca1906121bb565b91905055503373ffffffffffffffffffffffffffffffffffffffff16817f01bc0f9d4f6b0c66e2bda5f433d9760d7eb48e89b73ffea517a7ba5e4fe0657d85604051610ced919061156a565b60405180910390a3505050565b60036020528160005260406000208181548110610d1657600080fd5b90600052602060002001600091509150505481565b600047905090565b60008054906101000a900473ffffffffffffffffffffffffffffffffffffffff1673ffffffffffffffffffffffffffffffffffffffff163373ffffffffffffffffffffffffffffffffffffffff1614610dc1576040517f08c379a0000000000000000000000000000000000000000000000000000000008152600401610db890611c08565b60405180910390fd5b6064811115610e05576040517f08c379a0000000000000000000000000000000000000000000000000000000008152600401610dfc90612275565b60405180910390fd5b806001819055507f1b7585f42a00cea76ceff33f7bf7b09fe31233ba4634baca0afa1d93e359122681604051610e3b919061156a565b60405180910390a150565b60008054906101000a900473ffffffffffffffffffffffffffffffffffffffff1681565b60026020528060005260406000206000915090508060000154908060010160009054906101000a900473ffffffffffffffffffffffffffffffffffffffff16908060020154908060030154908060040154908060050160009054906101000a900460ff1690806006015490806007018054610ee490611edd565b80601f0160208091040260200160405190810160405280929190818152602001828054610f1090611edd565b8015610f5d5780601f10610f3257610100808354040283529160200191610f5d565b820191906000526020600020905b815481529060010190602001808311610f4057829003601f168201915b5050505050908060080160009054906101000a900473ffffffffffffffffffffffffffffffffffffffff16905089565b600080600080600080606060006004548910610fde576040517f08c379a0000000000000000000000000000000000000000000000000000000008152600401610fd590611ce0565b60405180910390fd5b6000600260008b815260200190815260200160002090508060010160009054906101000a900473ffffffffffffffffffffffffffffffffffffffff168160020154826003015483600401548460050160009054906101000a900460ff168560060154866007018760080160009054906101000a900473ffffffffffffffffffffffffffffffffffffffff1681805461107590611edd565b80601f01602080910402602001604051908101604052809291908181526020018280546110a190611edd565b80156110ee5780601f106110c3576101008083540402835291602001916110ee565b820191906000526020600020905b8154815290600101906020018083116110d157829003601f168201915b505050505091509850985098509850985098509850985050919395975091939597565b565b60008054906101000a900473ffffffffffffffffffffffffffffffffffffffff1673ffffffffffffffffffffffffffffffffffffffff163373ffffffffffffffffffffffffffffffffffffffff16146111a1576040517f08c379a000000000000000000000000000000000000000000000000000000000815260040161119890611c08565b60405180910390fd5b60045483106111e5576040517f08c379a00000000000000000000000000000000000000000000000000000000081526004016111dc90611ce0565b60405180910390fd5b6000600260008581526020019081526020016000209050821561123d5760018160050160006101000a81548160ff0219169083600381111561122a576112296117ef565b5b021790555081816003018190555061126b565b60028160050160006101000a81548160ff02191690836003811115611265576112646117ef565b5b02179055505b837f2e7de2377c1e6f85a268dbe00519c60d65c9e38570a118be0eb07feb07fc89be8260050160009054906101000a900460ff166040516112ac9190611d95565b60405180910390a250505050565b60008054906101000a900473ffffffffffffffffffffffffffffffffffffffff1673ffffffffffffffffffffffffffffffffffffffff163373ffffffffffffffffffffffffffffffffffffffff1614611348576040517f08c379a000000000000000000000000000000000000000000000000000000000815260040161133f90611c08565b60405180910390fd5b600073ffffffffffffffffffffffffffffffffffffffff168173ffffffffffffffffffffffffffffffffffffffff16036113b7576040517f08c379a00000000000000000000000000000000000000000000000000000000081526004016113ae906122e1565b60405180910390fd5b806000806101000a81548173ffffffffffffffffffffffffffffffffffffffff021916908373ffffffffffffffffffffffffffffffffffffffff16021790555050565b6060600360008373ffffffffffffffffffffffffffffffffffffffff1673ffffffffffffffffffffffffffffffffffffffff16815260200190815260200160002080548060200260200160405190810160405280929190818152602001828054801561148557602002820191906000526020600020905b815481526020019060010190808311611471575b50505050509050919050565b6000604051905090565b600080fd5b600080fd5b6000819050919050565b6114b8816114a5565b81146114c357600080fd5b50565b6000813590506114d5816114af565b92915050565b6000602082840312156114f1576114f061149b565b5b60006114ff848285016114c6565b91505092915050565b6000806000606084860312156115215761152061149b565b5b600061152f868287016114c6565b9350506020611540868287016114c6565b9250506040611551868287016114c6565b9150509250925092565b611564816114a5565b82525050565b600060208201905061157f600083018461155b565b92915050565b600080fd5b600080fd5b6000601f19601f8301169050919050565b7f4e487b7100000000000000000000000000000000000000000000000000000000600052604160045260246000fd5b6115d88261158f565b810181811067ffffffffffffffff821117156115f7576115f66115a0565b5b80604052505050565b600061160a611491565b905061161682826115cf565b919050565b600067ffffffffffffffff821115611636576116356115a0565b5b61163f8261158f565b9050602081019050919050565b82818337600083830152505050565b600061166e6116698461161b565b611600565b90508281526020810184848401111561168a5761168961158a565b5b61169584828561164c565b509392505050565b600082601f8301126116b2576116b1611585565b5b81356116c284826020860161165b565b91505092915050565b600080604083850312156116e2576116e161149b565b5b60006116f0858286016114c6565b925050602083013567ffffffffffffffff811115611711576117106114a0565b5b61171d8582860161169d565b9150509250929050565b600073ffffffffffffffffffffffffffffffffffffffff82169050919050565b600061175282611727565b9050919050565b61176281611747565b811461176d57600080fd5b50565b60008135905061177f81611759565b92915050565b6000806040838503121561179c5761179b61149b565b5b60006117aa85828601611770565b92505060206117bb858286016114c6565b9150509250929050565b6117ce81611747565b82525050565b60006020820190506117e960008301846117c5565b92915050565b7f4e487b7100000000000000000000000000000000000000000000000000000000600052602160045260246000fd5b6004811061182f5761182e6117ef565b5b50565b60008190506118408261181e565b919050565b600061185082611832565b9050919050565b61186081611845565b82525050565b600081519050919050565b600082825260208201905092915050565b60005b838110156118a0578082015181840152602081019050611885565b60008484015250505050565b60006118b782611866565b6118c18185611871565b93506118d1818560208601611882565b6118da8161158f565b840191505092915050565b6000610120820190506118fb600083018c61155b565b611908602083018b6117c5565b611915604083018a61155b565b611922606083018961155b565b61192f608083018861155b565b61193c60a0830187611857565b61194960c083018661155b565b81810360e083015261195b81856118ac565b905061196b6101008301846117c5565b9a9950505050505050505050565b60006101008201905061198f600083018b6117c5565b61199c602083018a61155b565b6119a9604083018961155b565b6119b6606083018861155b565b6119c36080830187611857565b6119d060a083018661155b565b81810360c08301526119e281856118ac565b90506119f160e08301846117c5565b9998505050505050505050565b60008115159050919050565b611a13816119fe565b8114611a1e57600080fd5b50565b600081359050611a3081611a0a565b92915050565b600080600060608486031215611a4f57611a4e61149b565b5b6000611a5d868287016114c6565b9350506020611a6e86828701611a21565b9250506040611a7f868287016114c6565b9150509250925092565b600060208284031215611a9f57611a9e61149b565b5b6000611aad84828501611770565b91505092915050565b600081519050919050565b600082825260208201905092915050565b6000819050602082019050919050565b611aeb816114a5565b82525050565b6000611afd8383611ae2565b60208301905092915050565b6000602082019050919050565b6000611b2182611ab6565b611b2b8185611ac1565b9350611b3683611ad2565b8060005b83811015611b67578151611b4e8882611af1565b9750611b5983611b09565b925050600181019050611b3a565b5085935050505092915050565b60006020820190508181036000830152611b8e8184611b16565b905092915050565b7f4f6e6c79206f776e65722063616e2063616c6c20746869732066756e6374696f60008201527f6e00000000000000000000000000000000000000000000000000000000000000602082015250565b6000611bf2602183611871565b9150611bfd82611b96565b604082019050919050565b60006020820190508181036000830152611c2181611be5565b9050919050565b7f496e73756666696369656e7420636f6e74726163742062616c616e6365000000600082015250565b6000611c5e601d83611871565b9150611c6982611c28565b602082019050919050565b60006020820190508181036000830152611c8d81611c51565b9050919050565b7f436c61696d20646f6573206e6f74206578697374000000000000000000000000600082015250565b6000611cca601483611871565b9150611cd582611c94565b602082019050919050565b60006020820190508181036000830152611cf981611cbd565b9050919050565b7f436c61696d206973206e6f742070656e64696e67000000000000000000000000600082015250565b6000611d36601483611871565b9150611d4182611d00565b602082019050919050565b60006020820190508181036000830152611d6581611d29565b9050919050565b6000604082019050611d81600083018561155b565b611d8e602083018461155b565b9392505050565b6000602082019050611daa6000830184611857565b92915050565b7f436c61696d206973206e6f7420617070726f7665640000000000000000000000600082015250565b6000611de6601583611871565b9150611df182611db0565b602082019050919050565b60006020820190508181036000830152611e1581611dd9565b9050919050565b7f52657175657374656420616d6f756e74206d757374206265206772656174657260008201527f207468616e203000000000000000000000000000000000000000000000000000602082015250565b6000611e78602783611871565b9150611e8382611e1c565b604082019050919050565b60006020820190508181036000830152611ea781611e6b565b9050919050565b7f4e487b7100000000000000000000000000000000000000000000000000000000600052602260045260246000fd5b60006002820490506001821680611ef557607f821691505b602082108103611f0857611f07611eae565b5b50919050565b60008190508160005260206000209050919050565b60006020601f8301049050919050565b600082821b905092915050565b600060088302611f707fffffffffffffffffffffffffffffffffffffffffffffffffffffffffffffffff82611f33565b611f7a8683611f33565b95508019841693508086168417925050509392505050565b6000819050919050565b6000611fb7611fb2611fad846114a5565b611f92565b6114a5565b9050919050565b6000819050919050565b611fd183611f9c565b611fe5611fdd82611fbe565b848454611f40565b825550505050565b600090565b611ffa611fed565b612005818484611fc8565b505050565b5b818110156120295761201e600082611ff2565b60018101905061200b565b5050565b601f82111561206e5761203f81611f0e565b61204884611f23565b81016020851015612057578190505b61206b61206385611f23565b83018261200a565b50505b505050565b600082821c905092915050565b600061209160001984600802612073565b1980831691505092915050565b60006120aa8383612080565b9150826002028217905092915050565b6120c382611866565b67ffffffffffffffff8111156120dc576120db6115a0565b5b6120e68254611edd565b6120f182828561202d565b600060209050601f8311600181146121245760008415612112578287015190505b61211c858261209e565b865550612184565b601f19841661213286611f0e565b60005b8281101561215a57848901518255600182019150602085019450602081019050612135565b868310156121775784890151612173601f891682612080565b8355505b6001600288020188555050505b505050505050565b7f4e487b7100000000000000000000000000000000000000000000000000000000600052601160045260246000fd5b60006121c6826114a5565b91507fffffffffffffffffffffffffffffffffffffffffffffffffffffffffffffffff82036121f8576121f761218c565b5b600182019050919050565b7f5468726573686f6c64206d757374206265206265747765656e203020616e642060008201527f3130300000000000000000000000000000000000000000000000000000000000602082015250565b600061225f602383611871565b915061226a82612203565b604082019050919050565b6000602082019050818103600083015261228e81612252565b9050919050565b7f4e6577206f776e65722063616e6e6f74206265207a65726f2061646472657373600082015250565b60006122cb602083611871565b91506122d682612295565b602082019050919050565b600060208201905081810360008301526122fa816122be565b905091905056fea26469706673582212207068c48b70349cc70209a4eff819ad6a2f95d6a1c4af482d33bb60382bd0295e64736f6c63430008140033",
  "linkReferences": {},
  "deployedLinkReferences": {}
}